:100000000C9423020C9454020C9454020C94540249
:100010000C9454020C9454020C9454020C94540208
:100020000C9454020C9454020C9454020C945402F8
:100030000C9454020C9454020C9454020C945402E8
:100040000C9454020C9454020C9454020C945402D8
:100050000C9454020C9454020C9454020C943805E1
:100060000C9454020C9402050C94D8040C94540281
:100070000C9454020C9454020C9454020C945402A8
:100080000C9454020C9454020C9454020C94540298
:100090000C9454020C9454020C9454020C94540288
:1000A0000C9454020C9454020C9454020C94540278
:1000B0000C9454020C9454020C9454020C94540268
:1000C0000C9454020C9454020C9454020C94540258
:1000D0000C9454020C9454020C9454020C94540248
:1000E0000C9454020C9482050C9417040C94B102E5
:1000F0000C94D3020C942B040C940B030C94580313
:100100000C9409040C9413040C9475020C94FF03D2
:100110000C94DE030C94FC030C94D9030C94A202FF
:100120000C94F0030C94F4030C941D040C9425041B
:100130000C94C5020C9405040C94D5080C9421046D
:100140000C94F8030C942F040C940F0400000A0B79
:1001500002090C0D0E080703040100000000000056
:10016000000000000000000000000000000000008F
:10017000000000000000000012111000000000004C
:10018000000000000000000000000000000000006F
:100190000000007CFE928AFE7C00008088FEFE80CB
:1001A000800000C4E6A2929E8C000044C69292FE9B
:1001B0006C0000302824FEFE2000004ECE8A8AFA11
:1001C0007200007CFE9292F66400000606E2FA1EBF
:1001D0000600006CFE9292FE6C00004CDE9292FED5
:1001E0007C000040E8A8A8F8F00000FEFE9090F027
:1001F00060000070F88888D850000060F09090FE91
:10020000FE000070F8A8A8B830000020FCFE2226EE
:1002100004000018BCA4A4FC7C0000FEFE1010F03A
:10022000E000000080F4F48000000060E080FA7AD2
:10023000000000FEFE2070D88800000000FEFE00D6
:10024000000000F8F830E030F8F800F8F81818F876
:10025000F0000070F88888F8700000FCFC24243C52
:10026000180000183C24FCFC80C000F8F80808388E
:1002700030000090A8A8A8A84800001010FCFC10AE
:1002800010000078F88080F8F800003070C0C0706E
:1002900030000078F880F080F8780088D87070D846
:1002A00088000018B8A0A0F878000000C8E8B89846
:1002B000000000FCFE1212FEFC0000FEFE9292FE08
:1002C0006C00007CFE8282C6440000FEFE8282FE3C
:1002D0007C0000FEFE929292820000FEFE1212123C
:1002E0000200007CFE82A2E6640000FEFE1010FE0A
:1002F000FE00000082FEFE8200000060E082FE7EC2
:10030000020000FEFE386CC6820000FEFE80808087
:10031000800000FEFE0C180CFEFE00FEFE0C1830E5
:10032000FEFE007CFE8282FE7C0000FEFE22223E5B
:100330001C00003C7E4262FEBC0000FEFE3272DE0B
:100340008C00004CDE9292F66400000602FEFE0273
:100350000600007EFE8080FEFE00003E7EC0C07E65
:100360003E0000FEFE603060FEFE00C6EE38103833
:10037000EEC6000E1EF0F01E0E0000C2E2B29A8E13
:10038000860000002200250028002B002E003100EE
:10039000340002010000050108010B0100002100EA
:1003A000240027002A002D00300033000101000046
:1003B000040107010A0105050505070508080808E5
:1003C000020202020A0A08080404040401010101ED
:1003D00001010101030303030303030304070707E8
:1003E0000C0C0C0C0C0C0C0C02020202060606068D
:1003F000060606060B0B0B0B0B0B0B0B010210205A
:10040000200808102040102040800201020108044A
:1004100002010102040810204080804020100804DE
:100420000201800402018040201008040201080437
:10043000020101020408102040800102040810207B
:1004400040808205D50811241FBECFEFD1E2DEBF68
:10045000CDBF00E00CBF23E0AEE2B2E001C01D92D0
:10046000A733B207E1F712E0A0E0B2E0ECE1F6E179
:1004700000E00BBF02C007900D92AE32B107D9F772
:1004800012E0C2E2D2E000E006C021970109802F0D
:10049000FE010E94DE08C132D10780E00807A9F7FB
:1004A0000E940D060C94FC0A0C94000090E0FC01E4
:1004B000E450FC4F24918A549C4FFC018491882382
:1004C00099F090E0880F991FFC01E456FC4FA5912C
:1004D000B491FC01EE57FC4F859194918FB7F8943D
:1004E000EC91E22BEC938FBF0895AF92BF92CF9225
:1004F000DF92EF92FF920F931F93CF93DF936C01E4
:100500007B018B01040F151FEB015E01AE18BF08C4
:10051000C017D10759F06991D601ED91FC91019076
:10052000F081E02DC6011995892B79F7C501DF917E
:10053000CF911F910F91FF90EF90DF90CF90BF90E0
:10054000AF900895FC01538D448D252F30E0842F0A
:1005500090E0821B930B541710F0CF9608950197EB
:100560000895FC01918D828D981761F0A28DAE0FD8
:10057000BF2FB11D5D968C91928D9F5F9F73928F5F
:1005800090E008958FEF9FEF0895FC01918D828D8B
:10059000981731F0828DE80FF11D858D90E0089558
:1005A0008FEF9FEF0895FC01918D228D892F90E0B0
:1005B000805C9F4F821B91098F739927089587E371
:1005C00092E00E94D30221E0892B09F420E0822FDF
:1005D0000895FC01A48DA80FB92FB11DA35ABF4FD8
:1005E0002C91848D90E001968F739927848FA68932
:1005F000B7892C93A089B1898C91837080648C9386
:10060000938D848D981306C00288F389E02D808134
:100610008F7D80830895EF92FF920F931F93CF9366
:10062000DF93EC0181E0888F9B8D8C8D98131AC02D
:10063000E889F989808185FF15C09FB7F894EE8914
:10064000FF896083E889F989808183708064808371
:100650009FBF81E090E0DF91CF911F910F91FF90BC
:10066000EF900895F62E0B8D10E00F5F1F4F0F7364
:100670001127E02E8C8D8E110CC00FB607FCFACF1F
:10068000E889F989808185FFF5CFCE010E94E902D2
:10069000F1CFEB8DEC0FFD2FF11DE35AFF4FF082F0
:1006A0009FB7F8940B8FEA89FB8980818062CFCF56
:1006B000CF93DF93EC01888D8823B9F0AA89BB8999
:1006C000E889F9898C9185FD03C0808186FD0DC084
:1006D0000FB607FCF7CF8C9185FFF2CF808185FFA5
:1006E000EDCFCE010E94E902E9CFDF91CF910895CD
:1006F00080E090E0892B29F00E94DF0281110E94A6
:10070000000080E090E0892B49F080E090E0892BA8
:1007100029F00E94000081110E94000080E090E01A
:10072000892B49F080E090E0892B29F00E9400009D
:1007300081110E94000080E090E0892B49F080E068
:1007400090E0892B29F00E94000081110C94000098
:100750000895282F30E0F901E45BFE4F9491F901F0
:10076000E450FC4F44912A543C4FF9012491222338
:1007700009F435C0992311F191509231F8F4E92F21
:10078000F0E08827E953FC4F8F4F0C94DE08F80304
:10079000FC03D903F003F403DE03FF03050409049B
:1007A0000F04130417041D042104DE0325042B0485
:1007B0002F04809180008F7780938000E22FF0E0FB
:1007C000EE0FFF1FEE57FC4FA591B4918FB7F89431
:1007D000EC91611148C040954E234C938FBF089512
:1007E000809180008F7DE8CF80918000877FE4CF6B
:1007F00084B58F7784BDE2CF84B58F7DFBCF8091A8
:10080000B0008F778093B000D9CF8091B0008F7DFA
:10081000F9CF809190008F7780939000CFCF809117
:1008200090008F7DF9CF80919000877FF5CF8091E8
:10083000A0008F778093A000C1CF8091A0008F7D12
:10084000F9CF8091A000877FF5CF809120018F772D
:1008500080932001B3CF809120018F7DF9CF8091CB
:100860002001877FF5CF4E2BB8CF3FB7F89480910A
:10087000330290913402A0913502B091360226B530
:10088000A89B05C02F3F19F00196A11DB11D3FBFC8
:10089000BA2FA92F982F8827BC01CD01620F711D97
:1008A000811D911D42E0660F771F881F991F4A9591
:1008B000D1F70895CF92DF92EF92FF920F931F939B
:1008C000CF93DF931F921F92CDB7DEB769834A8320
:1008D000880F991F0091300310913103000F111FF1
:1008E000EAEDF2E09F012A5D32402017310714F44F
:1008F0001192F8CF2981FC01E652FD4F21838A81B4
:10090000808360E080912E030E94A90310161106D7
:1009100004F501501109F801E652FD4FE080D09036
:100920002C03C0902A0388E0F82E6E2D661F6627E0
:10093000661F8C2D0E94A903EE0C61E08D2D0E9494
:10094000A90360E08D2D0E94A903FA94F110EDCF68
:10095000DDCF61E080912E030F900F90DF91CF915A
:100960001F910F91FF90EF90DF90CF900C94A9030F
:10097000EF92FF920F931F93CF937C018C0183E042
:10098000000F111F8A95E1F706511D4FC1E0F801D4
:1009900011928F0140E06C2FC7010E945A04CF5F73
:1009A000C930A9F7CF911F910F91FF90EF90089553
:1009B0001F920F920FB60F9211240BB60F922F9326
:1009C0003F934F935F936F937F938F939F93AF93D7
:1009D000BF93EF93FF9387E392E00E94E902FF91B8
:1009E000EF91BF91AF919F918F917F916F915F91A7
:1009F0004F913F912F910F900BBE0F900FBE0F9014
:100A00001F9018951F920F920FB60F9211240BB6DC
:100A10000F922F938F939F93EF93FF93E091470251
:100A2000F09148028081E0914D02F0914E0282FDEA
:100A30001DC09081809150028F5F8F732091510271
:100A4000821741F0E0915002F0E0E95CFD4F958F94
:100A500080935002FF91EF919F918F912F910F9072
:100A60000BBE0F900FBE0F901F9018958081F2CF94
:100A70001F920F920FB60F9211242F933F938F93D3
:100A80009F93AF93BF9380912F0290913002A091DA
:100A90003102B091320230912E0223E0230F2D3724
:100AA00058F50196A11DB11D20932E0280932F02AF
:100AB00090933002A0933102B093320280913302BE
:100AC00090913402A0913502B09136020196A11D99
:100AD000B11D8093330290933402A0933502B093FA
:100AE0003602BF91AF919F918F913F912F910F90BF
:100AF0000FBE0F901F90189526E8230F0296A11D98
:100B0000B11DD2CF10923A021092390288EE93E0D2
:100B1000A0E0B0E080933B0290933C02A0933D02A2
:100B2000B0933E0282E192E09093380280933702C4
:100B300085EC90E0909344028093430284EC90E033
:100B4000909346028093450280EC90E09093480297
:100B50008093470281EC90E090934A02809349028F
:100B600082EC90E090934C0280934B0286EC90E0F4
:100B700090934E0280934D021092500210925102B7
:100B800010925202109253021092D5021092D40287
:100B90001092D7021092D6021092D9021092D80267
:100BA0006AE070E090E080E00E940B0A009701F19B
:100BB0009093D5028093D40229E030E03093D7029D
:100BC0002093D6022091D8023091D902232B11F420
:100BD000FC01108289E090E09093D9028093D802C2
:100BE00060E272E08091D4029091D5020C94F50AF3
:100BF0008091D4029091D502009711F00E94820951
:100C00001092D5021092D4021092D9021092D802FA
:100C10001092D7021092D6020895CF93DF93CDB7EA
:100C2000DEB72E970FB6F894DEBF0FBECDBF789417
:100C300084B5826084BD84B5816084BD85B58260E1
:100C400085BD85B5816085BD80916E008160809392
:100C50006E001092810080918100826080938100FB
:100C6000809181008160809381008091800081600B
:100C7000809380008091B10084608093B100809166
:100C8000B00081608093B000809191008260809379
:100C900091008091910081608093910080919000FB
:100CA0008160809390008091A10082608093A10078
:100CB0008091A10081608093A1008091A00081605B
:100CC0008093A00080912101826080932101809116
:100CD00021018160809321018091200181608093B6
:100CE000200180917A00846080937A0080917A005C
:100CF000826080937A0080917A00816080937A008C
:100D000080917A00806880937A001092C1000CE094
:100D100010E010932B0300932A038BE090E0909354
:100D20002D0380932C038DE090E090932F0380930C
:100D30002E031092320382E090E09093310380936F
:100D400030038CE00E94560280912C030E945602D0
:100D500080912E030E94560261E080912E030E9432
:100D6000A90310932B0300932A03EAEEF2E08AE230
:100D700093E011928E179F07E1F710E000E0809159
:100D8000300390913103081719077CF540E06FE0BC
:100D9000C8010E945A0480913003909131030817D2
:100DA00019072CF447E06BE0C8010E945A0440E0A8
:100DB00069E0C8010E945A04809130039091310388
:100DC000081719071CF4C8010E94B8048091300369
:100DD00090913103081719072CF440E06CE0C8012A
:100DE0000E945A040F5F1F4FCACF10E000E08091AD
:100DF00030039091310308171907F4F441E06CE0D7
:100E0000C8010E945A048091300390913103081761
:100E100019072CF448E06AE0C8010E945A04809146
:100E2000300390913103081719071CF4C8010E9480
:100E3000B8040F5F1F4FDBCFE0914702F0914802EB
:100E400082E08083E0914302F09144021082E091BD
:100E50004502F09146028FEC808310924F02E091A0
:100E60004B02F0914C0286E08083E0914902F091C0
:100E70004A02808180618083E0914902F0914A02B8
:100E8000808188608083E0914902F0914A028081EC
:100E900080688083E0914902F0914A0280818F7DD1
:100EA00080832DB73EB73E872D874091D802509161
:100EB000D9025A8749878DB79EB7841B950B0FB609
:100EC000F8949EBF0FBE8DBFEDB7FEB73196FC877D
:100ED000EB87D12CC12C29853A85C216D3060CF09C
:100EE0005AC18091D8029091D902C816D90608F04B
:100EF0009AC08091D4029091D502009709F493C0D2
:100F00008C0D9D1DFC011081EB85FC851193FC87E8
:100F1000EB87612F87E392E00E940B0342E050E0F1
:100F20006AE272E087E392E00E94750288E0E6E000
:100F3000F2E0DE01119601900D928A95E1F78FEBB8
:100F4000810F8A3108F071C0F8E01F02B00111244E
:100F5000DE01119690E080E066557F4FFB01E80FBF
:100F6000F91FE491ED93019688309105B9F78091CE
:100F70003203811196C010E000E00F5F1F4F70E058
:100F800060E081E090E00830110519F0B80190E0D0
:100F900080E0209130033091310382179307D4F41D
:100FA000F801319741E050E04C0F5D1FE40FF51F51
:100FB0004081FC0153E0EE0FFF1F5A95E1F7E65226
:100FC000FD4FE60FF71F408B6F5F0E945A040830F9
:100FD000110599F60E9435042B013C0188EE882EFC
:100FE00083E0982EA12CB12C0E9435046419750958
:100FF00086099709683E734081059105A8F3F1E0E1
:101000008F1A9108A108B10828EE420E23E0521E63
:10101000611C711C81149104A104B10429F74FEFE4
:10102000C41AD40A58CF10E06FCF8FE9810F8A31EC
:10103000A0F428E01202B0011124DE01119690E024
:1010400080E066527140FB01E80FF91FE491ED93D7
:10105000019688309105B9F78ACF80ED810F8A30EB
:10106000A0F438E01302B0011124DE01119690E0E3
:1010700080E06E5E7F4FFB01E80FF91FE491ED9376
:10108000019688309105B9F772CF103209F06FCF11
:1010900019821A821B821C821D821E821F82188660
:1010A00066CF409030035090310323E0440C551C30
:1010B0002A95E1F737E0A32EB12CC2010A972C0143
:1010C0002091300330913103890101501109C2018F
:1010D0008A199B0997FF04C0015011090896FACF9D
:1010E0000F3FEFEF1E070CF475CF0F3F100709F409
:1010F0004AC0021713070CF046C0883091050CF067
:1011000042C0E1E0F0E0EC0FFD1FEA0DFB1D808026
:10111000380193E0660C771C9A95E1F720E830E0FF
:1011200002C0359527958A95E2F7222E322E30940B
:10113000F12CE12C912C8091300390913103081710
:101140001907D4F4F701E60DF71DE652FD4F80892B
:1011500027E030E02E193F09A40102C055954795BC
:101160002A95E2F740FF15C08229808B408961E013
:101170006E0DC8010E945A045FEFE51AF50A88E077
:10118000E816F104C1F691E0A91AB10808F098CF69
:1011900021CF8321EACF8D859E850FB6F8949EBF1F
:1011A0000FBE8DBF0E9478037CCE8091D4029091B7
:1011B000D502009711F00C9482090895EE0FFF1FDD
:1011C000881F8BBF0790F691E02D19940F931F9302
:1011D000CF93DF938230910510F482E090E0E091AC
:1011E0003503F091360330E020E0B0E0A0E0309726
:1011F00099F42115310509F44AC0281B390B243014
:101200003105D8F58A819B816115710589F1FB0152
:1012100093838283FE0111C0408151810281138139
:1012200048175907E0F04817590799F4109761F0EB
:1012300012960C93129713961C933296CF01DF915E
:10124000CF911F910F9108950093350310933603AA
:10125000F4CF2115310551F04217530738F0A90199
:10126000DB019A01BD01DF01F801C1CFEF01F9CF28
:101270009093360380933503CDCFFE01E20FF31F29
:10128000819391932250310939832883D7CF2091BC
:10129000330330913403232B41F420910202309127
:1012A00003023093340320933303209100023091E2
:1012B00001022115310541F42DB73EB740910402DA
:1012C00050910502241B350BE0913303F091340358
:1012D000E217F307A0F42E1B3F0B2817390778F00D
:1012E000AC014E5F5F4F2417350748F04E0F5F1F6C
:1012F0005093340340933303819391939FCFF0E055
:10130000E0E09CCFCF93DF930097E9F0FC013297A8
:1013100013821282A0913503B0913603ED0130E0C3
:1013200020E01097A1F420813181820F931F20913A
:101330003303309134032817390709F061C0F09363
:101340003403E0933303DF91CF910895EA01CE1780
:10135000DF07E8F54A815B819E0141155105B1F730
:10136000E901FB83EA8349915991C40FD51FEC171A
:10137000FD0761F4808191810296840F951FE90138
:1013800099838883828193819B838A83F0E0E0E064
:1013900012968D919C9113970097B9F52D913C91E0
:1013A0001197CD010296820F931F20913303309144
:1013B00034032817390739F6309751F51092360360
:1013C00010923503B0933403A0933303BCCFD3837F
:1013D000C28340815181840F951FC817D90761F4DA
:1013E0004E5F5F4F88819981480F591F5183408319
:1013F0008A819B81938382832115310509F0B0CFC7
:10140000F0933603E09335039ECFFD01DC01C0CF9E
:1014100013821282D7CF4F925F926F927F928F92F8
:101420009F92AF92BF92CF92DF92EF92FF920F9373
:101430001F93CF93DF938C01009799F4CB01DF9139
:10144000CF911F910F91FF90EF90DF90CF90BF90C1
:10145000AF909F908F907F906F905F904F900C9483
:10146000E608FC01E60FF71F9C0122503109E21744
:10147000F30708F4AEC0D901CD91DC911197C617DE
:10148000D70720F1C530D10578F0CE010497861733
:10149000970750F0C61BD70B2297C193D1936D933A
:1014A0007C93CF010E948209C801DF91CF911F91E7
:1014B0000F91FF90EF90DF90CF90BF90AF909F90F3
:1014C0008F907F906F905F904F9008955B01AC1A62
:1014D000BD0A4C018C0E9D1EA0913503B0913603C0
:1014E000512C412CF12CE12C109731F580913303D4
:1014F000909134038815990509F05CC0461657068B
:1015000008F058C08091000290910102009741F4C8
:101510008DB79EB74091040250910502841B950B34
:10152000E817F90708F055C0F0933403E09333034C
:10153000F90171836083B8CF8D919C9111971296B8
:101540006C90129713967C901397A815B90559F5CE
:101550006C0142E0C40ED11CCA14DB0420F1AC01C2
:101560004A195B09DA011296159780F0628273823C
:1015700051834083D9016D937C93E114F10471F0A0
:10158000D7011396FC93EE9312978ECF22968C0F71
:101590009D1FF90191838083F301EFCFF093360310
:1015A000E093350381CF4816590608F42C017D01DC
:1015B000D3019ACFCB010E94E6087C01009749F045
:1015C000AE01B8010E94EC0AC8010E94820987019D
:1015D0006BCF10E000E068CFFB01DC0102C001909E
:1015E0000D9241505040D8F70895FB01DC01019065
:1015F0000D920020E1F7089512E0C2E2D2E000E08F
:1016000006C0802FFE010E94DE082196011DC33214
:0C161000D10780E00807A9F7F894FFCF8D
:10161C0000003703800000082A1C771C2A080000F1
:10162C0000000B037502A2025803D302B102C502DB
:0E163C0034785E322B32782B31000D0A00001C
:00000001FF
